:1032CD0055534220444542554700555342205245DF
:1032DD0041440010C4EA611A03530069006C00698F
:1032ED000063006F006E0020004C006100620073EF
:1032FD0000100355005300420020004100500049CA
:10330D00000A0343003500310046000F8001000123
:1034ED00013B00014200014700014900014A000172
:1034FD004800013F000240000004430000000101AC
:08350D003CAA013D55013EFFFF
:102D2600122F781236BB7F0A7E001235B2122B9E06
:102D36001236A81235AE74FFFFFE12345D1236A8A5
:102D46001235AE7F007EF812345D1236A81235AE0B
:102D56007FE07E0712345D1236A81235AE7F1F7EE5
:102D66000012345D1236A81235AEE4FFFE12345D51
:102D76001236A81235AE122DA31236A81235AEE4BD
:102D8600F509AF0912250C7F647E001235B21236A2
:0D2D9600A80509E509C3940340E8022D33A8
:0435AE007FC87E0054
:1035B200E4FDFCC3ED9FEC9E5014E4FBFA0BBB0050
:0E35C200010AEBF44A70F60DBD00010C80E525
:0135D00022D8
:04331D008E658F66C4
:10332100E4F567F56830B720E4FFFEC3EF9566EE7C
:103331009565501EE4FDFC0DBD00010CEDF44C70D3
:10334100F60FBF00010E80E31236A87F147E001233
:1033510035B20568E56870020567C39464E5679452
:033361000040C267
:013364002246
:1036A80030B60512069E80F87FF47E011235B230DE
:0336B800B6FD223A
:10069E00780E7C007D007BFF7A33791C7E007F0113
:1006AE001211D3E5427003020869750A01E50A25A5
:1006BE00E025E02458F582E43402F583E07029E564
:1006CE000A25E025E02459F582E43402F583E0FEA4
:1006DE00E50A25E025E0245AF582E43402F583E0AC
:1006EE00FDEDFF1236F0803BE50A25E025E02458AB
:1006FE00F582E43402F583E064017027E50A25E013
:10070E0025E02459F582E43402F583E0FEE50A255E
:10071E00E025E0245AF582E43402F583E0FDEDFF96
:10072E001235A4050AE50AC39410408100000000AA
:10073E0000000000000000000000000000000000AB
:10074E007BFF7A3279CDE4F514F515F516F51774AD
:10075E00FFF518F519E4FDFC1229DD90025BE0208F
:10076E00E00302084F750A01E50A25E025E024584A
:10077E00F582E43402F583E07054E50A25E025E0C5
:10078E002459F582E43402F583E0FEE50A25E025DE
:10079E00E0245AF582E43402F583E0FDEDFFE50A2C
:1007AE0025E025E0245BF582E43402F583E075F064
:1007BE0024A4FDACF0E50A75F011A4FBAAF07515A2
:1007CE00077516E0E4F517F518122A788067E50A22
:1007DE0025E025E02458F582E43402F583E0640137
:1007EE007053E50A25E025E02459F582E43402F53C
:1007FE0083E0FEE50A25E025E0245AF582E4340282
:10080E00F583E0FDEDFFE50A25E025E0245BF582AA
:10081E00E43402F583E075F024A4FDACF0E50A752E
:10082E00F011A4FBAAF075150075161F74FFF517CD
:10083E00F518122A78050AE50AC394105003020728
:10084E007600000000000000000000000000000024
:10085E000000000000E4F5420206B1E54870030214
:10086E000925E4F50AE50AC394404003020914C2BF
:10087E00A0D2B17458250AF582E43402F583E0FF64
:10088E007459250AF582E43402F583E0FD1236FA36
:10089E00D2A07458250AF582E43402F583E0FF05F0
:1008AE0041E541AC4070020540142400F58274000D
:1008BE003CF583EFF07459250AF582E43402F58392
:1008CE00E0FF0541E541AC4070020540142400F5FF
:1008DE008274003CF583EFF0E4B54123E540B402A9
:1008EE001E78431213BB122CA8900000E53FF07F38
:1008FE00007E007D007C00122CA8E4F540F5410539
:10090E000A050A020873E4F548FB7A00790E7D01A8
:10091E00FC122160020869E53B7003020A1D900279
:10092E005BE070030209D9750A04E50AC3942440FA
:10093E0003020A0CC2A0D2B17458250AF582E4341F
:10094E0002F583E0FF7459250AF582E43402F5833B
:10095E00E0FD1236FAD2A07458250AF582E434026C
:10096E00F583E0FF0541E541AC40700205401424DB
:10097E0000F58274003CF583EFF07459250AF58278
:10098E00E43402F583E0FF0541E541AC4070020519
:10099E0040142400F58274003CF583EFF0E4B54179
:1009AE0023E540B4021E78431213BB122CA890000C
:1009BE0000E53FF07F007E007D007C00122CA8E455
:1009CE00F540F541050A050A020938750A04E50ADB
:1009DE00C394245029C2A0D2B17458250AF582E4DA
:1009EE003402F583E0FF7459250AF582E43402F5EA
:1009FE0083E0FD1236FAD2A0050A050A80D0E4F58E
:100A0E003BFB7A00790E7D01FC122160020925E57F
:100A1E004A7003020ACE750A04E50AC39424400301
:100A2E00020ABD7458250AF582E43402F583E0709B
:100A3E00217459250AF582E43402F583E0FE745AD6
:100A4E00250AF582E43402F583E0FDEDFF1236F05F
:100A5E0080547458250AF582E43402F583E0B4011B
:100A6E00217459250AF582E43402F583E0FE745AA6
:100A7E00250AF582E43402F583E0FDEDFF1235A47C
:100A8E0080247458250AF582E43402F583E064105C
:100A9E0070140000000000000000000000000000C4
:100AAE000000000000007404250AF50A020A27E47B
:100ABE00F54AFB7A00790E7D01FC122160020A1DB7
:100ACE00E5477003020C01E4F50A7400250AF5826D
:100ADE00E43402F583E4F0050AE50AB418EC90025A
:100AEE005FE025E0F50D90025DE0FEA3E0FDEEF582
:100AFE000BEDF50C90025CE064017034AF0CAE0BA4
:100B0E001236F0E4F50AE50AC3950D5023120003E0
:100B1E007400250AF582E43402F583E4F0740125AD
:100B2E000AF582E43402F583EFF0050A050A80D651
:100B3E00E4F5477B017A027900E50DFD7C00122178
:100B4E00607F647E001235B27BFF7A3279D7E4F58E
:100B5E0014F515F516F51774FFF518F519E4FDFCE7
:100B6E001229DD90025BE020E003020ACE900260C3
:100B7E00E075F024A4FDACF07515077516E0E4F5EC
:100B8E0017F5187B11FAAF0CAE0B122A78E4F50AA2
:100B9E00E50AC3950D4003020ACE900260E075F09F
:100BAE0024A4FDACF0C004C005E50AC3132402FF63
:100BBE00E433FE7C007D1112123FAA06AB077400CF
:100BCE00250AF582E43402F583E0FE7401250AF568
:100BDE0082E43402F583E0FDEDFF75150075161FF6
:100BEE0074FFF517F518D005D004122A78050A05FA
:100BFE000A809DE5496038E4F50A7418250AF582E5
:100C0E00E43402F583E4F0050AE50AB440ECE4901E
:100C1E000218F0A374A0F0E4A3F0A374A0F0E4F51E
:0F0C2E00497B017A0279187D40FC12216080C455
:010C3D002294
:1000460053D9BF75B283E4F5B943B980FF0FBFFF3B
:10005600FC43B9C0E5B930E5FBE4F5A943EF027509
:10006600F1FF75A4FF75A5FF75F2FF75A6FF75AEC6
:10007600FF75F4FF43A717C286C28743E10243E236
:010086004039
:010087002256
:102F78001200461234259032E0E493FE740193FF68
:102F88009032E2E493FC740193FD90020774FFF021
:102F9800A37432F0A374FEF0A374FFF0A37433F0AB
:102FA800A3740EF0903318E49390020DF090331947
:102FB800E49390020EF090331AE493FB740193901B
:102FC800020FCBF0A3EBF07BFF7A3279E4121DF409
:0F2FD80012365075A17075F80F1236BB020C3E01
:030088000234C27D
:03008B00022271DD
:10227100C0E0C0F0C083C082C0D075D000C000C033
:0D22810001C002C003C004C005C006C007B4
:10228E001236CB8F08E50830E27C7B017A02795852
:10229E007D401227DC900258E0FFB53C0FA3E0B55D
:1022AE003D0AA3E0B53E05754201805AEFB53E11D9
:1022BE00900259E0B53D0AA3E0B53C057547018093
:1022CE0045900258E0B53D0FA3E0B53C0AA3E0B53A
:1022DE003E05754901802F900258E0FFB53C0FA3D3
:1022EE00E0B53E0AA3E0B53D05753B018018EFB59C
:1022FE003E11900259E0B53C0AA3E0B53D05754A82
:10230E00018003754801E50830E703120088E508EF
:10231E0030E603120046E50830E41A157D157DA857
:10232E007D760008769F7A007B007C007D9F7E0084
:10233E007F0012268FE50830E51C053F157D157DC3
:10234E00A87D760008769F7A007B007C007D9F7EBC
:06235E00007F0012268F33
:10236400D007D006D005D004D003D002D001D000CD
:0B237400D0D0D082D083D0F0D0E03277
:0C3669007FFF1236757FFF1236757FFF61
:093675008FA330FFFDC2FFAFA3DB
:01367E002229
:0A36E50075A3FF30FFFDC2FFAFA385
:0136EF0022B8
:0230B000AE0769
:1030B200E4FB123669123669C2FAEE4440FF123658
:1030C20075AF1FAE1EAD1DAC1C78181213951236CB
:1030D20075AF1FAE1EAD1DAC1C78101213951236C3
:1030E20075AF1FAE1EAD1DAC1C78081213951236BB
:1030F20075AF1F1236757F951236757FFF123675C2
:0E310200BFFF09AE030BEED3946440EFD2FA88
:01311000229C
:1025C500E4FEFA75A90375A23BE4FD7FFF1236759B
:1025D5000DBD64F7E4F51FF51EF51DF51CFF123062
:1025E500B0AE070AEAD3940A5003BE01DCE4FAE46C
:1025F500F51FF51EF51DF51C7F371230B0AE070A25
:10260500EAD3946440037F0122BE01E3E4FAF51F97
:10261500F51EF51DF51C7F291230B0AE070AEAD369
:10262500946440037F0122EE70C5EE601FE4FAE476
:10263500F51FF51EF51DF51C7F011230B0AE070A1A
:10264500EAD3946440037F0122EE70E3E4F51FF5BD
:102655001EF51DF51C7F3B1230B0AE07E4F51F7566
:102665001E02F51DF51C7F101230B075A201E4F5B0
:02267500A9FFBB
:012677002240
:082CA8008F128E118D108C0FAC
:102CB000E4FA75A903AF12AE11AD10AC0F7809128A
:102CC00013A88F1F8E1E8D1D8C1C7F181230B0AE66
:102CD000070AEAD3940A40037F0122EE70D7C2FAB2
:102CE0007FFF1236757FFE123675FDFC74002DF5E0
:102CF0008274003CF583E0FF1236750DBD00010CB7
:102D0000E4B505E8ECB402E4123669AE07EE541FF0
:102D100064056003D2FA227FFF123675EF60F8D2A5
:052D2000FAE4F5A9FF33
:012D2500228B
:082FE7008F1A8E198D188C174A
:102FEF00E4FA75A903AF1AAE19AD18AC1778091228
:102FFF0013A88F1F8E1E8D1D8C1C7F111230B00ACF
:10300F00EAD3940A40037F0122EF70D9C2FA123635
:10301F00E5BFFEFAE4FDFC1236E574002DF582746F
:10302F00003CF583EFF00DBD00010CE4B505E8ECB5
:0C303F00B402E412366ED2FAE4F5A9FFE8
:01304B002262
:0F36BB00E4F91225C5EF600709E9D3940140F344
:0136CA0022DD
:10008E00F800F80007E007E0001F001FFFFFFFFF6A
:10009E00000000182442424242424242241800000C
:1000AE00000000107010101010101010107C0000C6
:1000BE000000003C4242420404081020427E000030
:1000CE000000003C42420418040202424438000080
:1000DE00000000040C14242444447E04041E00007A
:1000EE000000007E40404058640202424438000046
:1000FE000000001C24404058644242422418000074
:10010E000000007E4444080810101010101000006B
:10011E000000003C4242422418244242423C00006D
:10012E000000001824424242261A0202243800001F
:10013E000000001010182828243C444242E700001A
:10014E00000000F8444444784442424244F800001F
:10015E000000003E42428080808080424438000091
:10016E00000000F8444242424242424244F800003B
:10017E00000000FC424848784848404242FC0000DB
:10018E00000000FC424848784848404040E00000EB
:10019E000000003C44448080808E8444443800003B
:1001AE00000000E7424242427E42424242E70000E5
:1001BE000000007C1010101010101010107C0000A9
:1001CE000000003E0808080808080808080888F01B
:1001DE00000000EE444850705048484444EE000081
:1001EE00000000E0404040404040404042FE0000E1
:1001FE00000000EE6C6C6C6C5454545454D60000D9
:10020E00000000C7626252524A4A4A4646E2000065
:10021E00000000384482828282828282443800004A
:10022E00000000FC424242427C40404040E0000060
:10023E0000000038448282828282B2CA4C380600A4
:10024E00000000FC4242427C4848444442E3000025
:10025E000000003E4242402018040242427C000050
:10026E00000000FE92101010101010101038000038
:10027E00000000E74242424242424242423C0000FB
:10028E00000000E7424244242428281810100000E1
:10029E00000000D692929292AAAA6C4444440000A6
:1002AE00000000E7422424181818242442E7000016
:1002BE00000000EE444428281010101010380000E2
:1002CE000000007E840408081020204242FC00003A
:1002DE00001E1010101010101010101010101E0014
:1002EE0000004040202010101008080404040202F0
:1002FE0000780808080808080808080808087800A0
:10030E00001C2200000000000000000000000000A1
:10031E00000000000000000000000000000000FFD0
:10032E00006010000000000000000000000000004F
:10033E00000000000000003C421E2242423F00002E
:10034E00000000C0404040586442424264580000E1
:10035E00000000000000001C22404040221C000053
:10036E00000000060202021E22424242261B00002C
:10037E00000000000000003C427E4040423C000075
:10038E000000000F1110107E10101010107C0000D5
:10039E00000000000000003E444438403C42423C15
:1003AE00000000C04040405C6242424242E7000012
:1003BE00000000303000007010101010107C000093
:1003CE000000000C0C00001C040404040404447817
:1003DE00000000C04040404E4850684844EE0000C7
:1003EE00000000701010101010101010107C000083
:1003FE0000000000000000FE4949494949ED000097
:10040E0000000000000000DC6242424242E70000B1
:10041E00000000000000003C42424242423C00000C
:10042E0000000000000000D864424242447840E0E0
:10043E00000000000000001E22424242221E02075F
:10044E0000000000000000EE3220202020F8000006
:10045E00000000000000003E42403C02427C0000D2
:10046E00000000000010107C10101010100C000086
:10047E0000000000000000C642424242463B00001F
:10048E0000000000000000E74224242810100000A5
:10049E0000000000000000D79292AAAA4444000077
:1004AE00000000000000006E2418181824760000CA
:1004BE0000000000000000E742242428181010E07D
:1004CE00000000000000007E44081010227E000094
:1004DE0000030404040404080404040404040300D4
:1004EE00080808080808080808080808080808087E
:1004FE000060101010101008101010101010600076
:10050E00304C43000000000000000000000000001E
:10051E0000000000000000000000000000000000CD
:10052E00000000101010101010100000181800001D
:10053E0000123624480000000000000000000000F9
:10054E00000000242424FE484848FE484848000085
:10055E0000001038545450301814145454381010DD
:10056E0000000044A4A8A8A8541A2A2A2A4400006D
:10057E0000000030484848506EA4948889760000E8
:10058E0000606020C00000000000000000000000BD
:10059E0000020408081010101010100808040200C1
:1005AE00004020101008080808080810102040000D
:1005BE00000000001010D63838D6101000000000D1
:1005CE000000000010101010FE101010100000009F
:1005DE00000000000000000000000000606020C06D
:1005EE0000000000000000007F000000000000007E
:1005FE00000000000000000000000000606000002D
:10060E0000000102020404080810102020404000DF
:10061E00000000000000181800000000181800006C
:10062E00000000000000001000000000001010206C
:10063E0000000002040810204020100804020000F0
:10064E00000000000000FE000000FE0000000000A0
:10065E000000004020100804020408102040000092
:10066E000000003C42426202040808001818000014
:10067E0000000038445AAAAAAAAAB442443800007C
:10068E00FFFFFFFFFFFFFFFFFFFFFFFFFFFFFFFF6C
:0735F300E4FF1235FAE4FFCA
:1035FA00E4FEEF30E704D2968002C296EF25E0FFA0
:08360A00C297D2970EBE08EA38
:013612002295
:0A36F000C2A0C2B11235FAD2A02226
:10358A007E001235A4E4FFFE1235A4E4FFFE1235D4
:0A359A00A4E4FFFE1235A4E4FFFED6
:0A35A400C2A0D2B11235FAD2A02263
:0836FA001235FAAF050235FAA2
:100C3E00D2857FC87E001235B2C2857F207E031218
:100C4E0035B2D2857F207E031235B27F787E0012B8
:100C5E0035B27FFE7E001236F07FEF7E001236F048
:100C6E007F807E001236F07FFF7E001235A47F81DA
:100C7E007E001236F07FFF7E001235A47F827E004A
:100C8E001236F07FFF7E001235A47F837E0012366F
:100C9E00F07FFF7E001235A47F847E001236F07F37
:100CAE00FF7E001235A47F857E001236F07FFF7E18
:100CBE00001235A47F867E001236F07FFF7E001272
:100CCE0035A47F877E001236F07FFF7E001235A49A
:100CDE007F887E001236F07FFF7E001235A47F895A
:100CEE007E001236F07FFF7E001235A47F8A7E00D2
:100CFE001236F07FFF7E001235A47F8B7E001236F7
:100D0E00F07FFF7E001235A47F8C7E001236F07FBE
:100D1E00FF7E001235A47F8D7E001236F07FFF7E9F
:100D2E00001235A47F8E7E001236F07FFF7E0012F9
:100D3E0035A47F8F7E001236F07FFF7E001235A421
:100D4E007F3A7E001236F07F057E001235A47FECCE
:100D5E007E001236F07F017E001235A47F747E0075
:100D6E001236F07F027E001235A47F0E12358AE411
:100D7E00FFFE1235A47F987E001236F07F3E7E0075
:100D8E001235A47F997E001236F07F3E7E0012351A
:100D9E00A47FB57E001236F07F0D7E001235A47F43
:100DAE000D7E001235A47F607E001236F07F387EF5
:100DBE00001235A47F0F7E001235A47F797E0012BB
:100DCE0035A47F677E001235A47F617E001236F057
:100DDE007F387E001235A47F117E001235A47F79F4
:100DEE007E001235A47F677E001235A47F647E00DC
:100DFE001236F07F387E001235A47F177E00123532
:100E0E00A47F717E001235A47F5F7E001235A47F11
:100E1E00797E001235A47F677E001235A47F657E31
:100E2E00001236F07F387E001235A47F137E00123A
:100E3E0035A47F717E001235A47F5B7E001235A42F
:100E4E007F797E001235A47F677E001235A47F6AFB
:100E5E007E001236F012359B7F6C7E001236F07FCC
:100E6E00227E001235A47F027E001235A47F227EE0
:100E7E00001235A47F027E001235A47F227E00125E
:100E8E0035A47F227E001235A47F507E001235A439
:100E9E007F6E7E001236F07F037E001235A47F0334
:100EAE007E001235A47F017E001235A47F017E00E4
:100EBE001235987F0F7E001235A47F0F7E001235FB
:100ECE00A47F0D7E001235A47F0D7E001235A47F07
:100EDE000B7E001235A47F0B7E001235A47F097E97
:100EEE00001235A47F0912358A7F0A7E001235A4BE
:100EFE007F0A7E001235A47F0C7E001235A47F0C73
:100F0E007E001235A47F0E7E001235A47F0E7E0069
:100F1E001235A47F107E001235A47F107E0012358C
:100F2E00987F027E001235A47F027E001235A47FC8
:100F3E00047E001235A47F047E001235A47FBF7E8E
:100F4E00001236F07F017E001235A47FF97E00126A
:100F5E0036F07F407E001235A47F9B7E001236F065
:100F6E007F3B7E001235A47F937E001236F07F33D6
:100F7E007E001235A47F7F7E0012359E7F7E7E001E
:100F8E001236F07F307E001235A47F707E0012364E
:100F9E00F07F0D7E001235A47F027E001235A47FF5
:100FAE00087E001235A47F0D7E001235A47F027ECE
:100FBE00001235A47F087E001235A47F717E0012C8
:100FCE0036F07F0D7E001235A47F027E001235A40E
:100FDE007F087E001235A47F917E001236F07F0EC0
:100FEE007E001235A47F097E001235A47FC37E00D9
:100FFE001236F07F197E001235A47FC47E001236A1
:10100E00F07F197E001235A47FC97E001236F07F64
:10101E003C7E001235A47FF07E001236F07F537EA8
:10102E00001235A47F157E001235A47F0A7E0012B1
:10103E0035A47F047E0012359E7F3E7E001235A4BD
:10104E007FF27E001236F07F537E001235A47F159C
:10105E007E001235A47F0A7E001235A47F047E0026
:10106E0012359E7F3A7E001235A47FF17E00123635
:10107E00F07F567E001235A47FA87E001235A47F25
:10108E007F7E001235A47F337E001235A47F347E1E
:10109E00001235A47F5F7E001235A47FF37E00120E
:1010AE0036F07F527E001235A47FA47E001235A446
:1010BE007F7F7E001235A47F337E001235A47F34ED
:1010CE007E001235A47FDF7E001235A47F367E00AF
:1010DE001236F0E4FFFE1235A47F117E001236F0B8
:1010EE007FC87E001235B27F297E001236F07F2C2B
:0510FE007E000236F047
:10267800157D157DA87D760008769F7A007B007C05
:07268800007D9F7E007F0032
:10268F00157D157DA87DA60208A603157D157DA8CD
:10269F007DA60408A605157D157DA87DA60608A6AE
:1026AF00077F2A7E001236F0A97DE7FF7E001235E4
:1026BF00A4A87D7E0008E6FF1235A4A87D0808A90E
:1026CF0000E7FF7E001235A4A87D08087E0008E60B
:1026DF00FF1235A47F2B7E001236F0E57D2404F91E
:1026EF00E7FF7E001235A4E57D2404F87E0008E69E
:1026FF00FF1235A4E57D2406F9E7FF7E001235A40D
:10270F00E57D2406F87E0008E6FF1235A47F2C7EB7
:0B271F00001236F0E57D2408F57D2255
:04345D008E0A8F0B39
:1034610012267875A903C2A0D2B1E4FDE4FBFAE506
:103471000AFF1235FAAF0B1235FA0BBB00010AEB4A
:1034810064A04A70EA0DBD00010CED64A04C70DC33
:02349100D2A0C7
:013493002216
:10288B00782B7C007D007BFF7A00798E7E007F1099
:10289B001211D312267875A903C2A0D2B1E4FDE4BC
:1028AB00F527F528E4F529F52AED25E0242BF8E6A4
:1028BB00FEEEFF1235FAED25E0242BF808E6FF12A9
:1028CB0035FA052AE52A70020529C394A0E5299457
:1028DB000040D60528E52870020527C39414E52788
:1028EB00940040C00DBD00010CED64084C70B0E4C9
:1028FB00F527F528C3E5279400502DE4F529F52A93
:10290B00E539FF1235FAAF3A8FC71235FA052AE5CA
:10291B002A70020529C394A0E529940040E20528FA
:0D292B00E5287002052780CCE4F5A9D2A0B4
:01293800227C
:102B9E00122678C2A0D2B17FF81235F5E4FD7FFF80
:102BAE001235FA7FFF1235FA0DBD00010CED649E51
:102BBE004C70EBE4FF1235FA7F1F1235FAE4FBFA84
:102BCE007FF81235F5E4FCFD1235F30DBD00010C56
:102BDE00ED649E4C70F2E4FF1235FA7F1F1235FA47
:102BEE000BBB00010AEB649E4A70D57FF81235F5D7
:102BFE00E4FCFD7FFF1235FA7FFF1235FA0DBD00A2
:102C0E00010CED649E4C70EBE4FF1235FA7F1F123F
:042C1E0035FAD2A011
:012C2200228F
:02250C008F0A34
:10250E0075A903122678C2A0D2B1E4751664F5152A
:10251E00F514F513AF0AFDFEAB16AA15A914A813F0
:10252E00121267EF2401F50EE43EF50DE43DF50CB5
:10253E00E43CF50BE50E2516F512E50D3515F511F6
:10254E00E50C3514F510E50B3513F50FAF12AE1182
:10255E00AD10AC0FAB0EAA0DA90CA80BC3121384B1
:10256E00504FAF0EAE0DAD0CAC0B122FE7E4FBFAD5
:10257E00C3EA9402502474002BF58274003AF5835A
:10258E00E0FF74012BF58274003AF583E0FD1236FC
:10259E00FA74022BFBE43AFA80D6E50E2401F50E0E
:1025AE00E4350DF50DE4350CF50CE4350BF50B802B
:0625BE009BD2A0E4F5A988
:0125C40022F4
:1018E100122678C2A0D2B1E4FDE4F569F56AC3E538
:1018F1006994005013E4F5A0F5C7C297D297056A21
:10190100E56A70EA056980E6E4F569F56AE4F56B74
:10191100F56CAE69E56A7803C333CE33CED8F912DC
:1019210035F4056CE56C7002056BC39405E56B94A9
:101931000040DF056AE56A70020569C39420E56924
:10194100940040C90DBD00010CED64284C709AE46F
:10195100FCFDE4F569F56AC3E56994005013E4F50B
:10196100A0F5C7C297D297056AE56A70EA05698052
:10197100E6E4F569F56AE4F56BF56CE56A25E0FFE7
:10198100E56933FEEF7803CEC313CE13D8F9FF1206
:1019910035FAE56A25E0FFE56933FEEF7805C333E3
:1019A100CE33CED8F9FF1235FA056CE56C7002051D
:1019B1006BC39405E56B940040C1056AE56A70024A
:1019C1000569C39420E569940040AB0DBD00010C8D
:1019D100ED64284C6003021953E4FCFDE4F569F55C
:1019E1006AC3E56994005013E4F5A0F5C7C297D224
:1019F10097056AE56A70EA056980E6E4F569F56AC2
:101A0100E4F56BF56CE4FF1235FAAF6A1235FA05AD
:101A11006CE56C7002056BC39405E56B940040E5C1
:101A2100056AE56A70020569C39420E5699400407E
:101A3100CF0DBD00010CED64284C70A0E4FCFDE469
:101A4100F569F56AC3E56994005013E4F5A0F5C79B
:101A5100C297D297056AE56A70EA056980E6E4F5FE
:101A610069F56AE4F56BF56CE56A25E0FFE5693334
:101A7100FEEF7803CEC313CE13D8F9FFAE6AEE336F
:101A8100333354F84FFF1235FAAF6AEF25E0FEC445
:101A91003354E04FFF1235FA056CE56C7002056BAB
:101AA100C39405E56B940040BF056AE56A700205C1
:101AB10069C39420E569940040A90DBD00010CEDB6
:0A1AC10064284C6003021A40D2A012
:011ACB0022F8
:10204600122678C2A0D2B1E4FDC3EC94005020E47D
:10205600F575F5761235F30576E57670020575C3E6
:1020660094A0E575940040EC0DBD00010C80DAE407
:10207600FCFDE4FBFAE4F575F576AE04ED7803C3F2
:1020860033CE33CED8F91235F40576E576700205EF
:1020960075C39428E575940040E0E4F575F576ED92
:1020A60025E0FFEC33FEEF7803CEC313CE13D8F949
:1020B600FF1235FAED25E0FFEC33FEEF7805C3336A
:1020C600CE33CED8F9FF1235FA0576E576700205DD
:1020D60075C39428E575940040C5E4F575F576E476
:1020E600FF1235FAAF051235FA0576E57670020568
:1020F60075C39428E575940040E5E4F575F576ED2D
:1021060025E0FFEC33FEEF7803CEC313CE13D8F9E8
:10211600FFAE05EE33333354F84FFF1235FAED2593
:10212600E0C43354E04DFF1235FA0576E5767002C9
:102136000575C39428E575940040C40BBB00010ADD
:10214600EB64054A600302207B0DBD00010CED64C3
:09215600204C6003022078D2A0A5
:01215F00225D
:102C2300122678C2A0D2B1E4F577F578E4FDFCC3AF
:102C3300EC9400500A1235F30DBD00010C80F0E452
:102C4300FCFDE4FBFAAE04ED7802C333CE33CED8F9
:102C5300F97803CEC313CE13D8F9FFED25E0FE3385
:102C6300333354F84FFF1235FAED25E025E0C43332
:102C730054E0FFED25E04FFF1235FA0BBB00010ACC
:102C8300EB640A4A70BF0DBD00010CED64104C707B
:102C9300B10578E57870020577C394A0E5779400D1
:042CA300408AD2A0F1
:012CA700220A
:102DA300122678C2A0D2B1E4F50AF50BE4FDFCC308
:102DB300EC9400500A1235F30DBD00010C80F0E4D1
:102DC300FCFDE4FBFAED25E0FFEC33FEEF7803CEE8
:102DD300C313CE13D8F9FFAE05EE33333354F84F94
:102DE300FF1235FAED25E0C43354E04DFF1235FAF6
:102DF3000BBB00010AEB64054A70CA0DBD00010C50
:102E0300ED64204C70BC050BE50B7002050AC394FE
:092E1300A0E50A94004095D2A04C
:012E1C002293
:10141800122678C2A0D2B1E4FDE4F56DF56EC3E5FD
:101428006D9400500D1235F3056EE56E70F0056D84
:1014380080ECE4F56DF56EE4F56FF570AE6DE56E74
:101448007803C333CE33CED8F91235F40570E5707E
:101458007002056FC39405E56F940040DF056EE5E3
:101468006E7002056DC39420E56D940040C90DBDF2
:1014780000010CED641A4C70A0E4FCFD756D00755C
:101488006E20E4F56FF570E56E24FFFFE56D34FF1F
:10149800FEEF7803C333CE33CED8F91235F4057096
:1014A800E5707002056FC39405E56F940040D8E5B8
:1014B8006E156E7002156DD3E56E9400E56D94009F
:1014C80050C0E4F56DF56EC3E56D9400500D12350E
:1014D800F3056EE56E70F0056D80EC0DBD00010C36
:1014E800ED641A4C7096E4FCFDE4F56DF56E12356A
:1014F800F3056EE56E7002056DC39420E56D9400EA
:1015080040ECE4F56DF56EE4F56FF570AE6DE56EE3
:101518007803CEC313CE13D8F9FF1235FAAE6DE5B2
:101528006E7805C333CE33CED8F9FF1235FA05707D
:10153800E5707002056FC39402E56F940040CD0515
:101548006EE56E7002056DC39440E56D940040B77A
:101558000DBD00010CED641A4C708EE4FCFD756D38
:1015680000756E40E4F56FF570E56E24FFFFE56DDC
:1015780034FFFEEF7803CEC313CE13D8F9FF12352C
:10158800FAE56E24FFFFE56D34FFFEEF7805C333FF
:10159800CE33CED8F9FF1235FA0570E57070020522
:1015A8006FC39402E56F940040BFE56E156E70023C
:1015B800156DD3E56E9400E56D940050A7E4F56DC4
:1015C800F56E1235F3056EE56E7002056DC3942055
:1015D800E56D940040EC0DBD00010CED641A4C6003
:1015E80003021566E4FCFDE4F56DF56EC3E56D9444
:1015F80000500D1235F3056EE56E70F0056D80EC48
:10160800E4F56DF56EE4F56FF570E4FF1235FAAFA9
:101618006E1235FA0570E5707002056FC39405E522
:101628006F940040E5056EE56E7002056DC3942069
:10163800E56D940040CF0DBD00010CED641A4C70AF
:10164800A6E4FCFD756D00756E20E4F56FF570E499
:10165800FF1235FAE56E14FF1235FA0570E5707061
:1016680002056FC39405E56F940040E3E56E156EBF
:101678007002156DD3E56E9400E56D940050CBE4CF
:10168800F56DF56EC3E56D9400500D1235F3056EDA
:10169800E56E70F0056D80EC0DBD00010CED641E6B
:0516A8004C70A1D2A06E
:0116AD00221A
:1033AC00122678C2A0D2B1E4FD900000AF05123510
:1033BC00FAAF051235FAEDF4FF1235FAEDF4FF12FF
:1033CC0035FAA3E5826450458370E16305FF63041D
:0E33DC00FF0BBB00010AEB64A04A70CDD2A02B
:0133EA0022C0
:10244C00757900757A28122678C2A0D2B1E4FDC342
:10245C00ED957AEC9579501FE4F583F5827F7B122C
:10246C0035FA7FEF1235FAA3E58264A0458370ED4F
:10247C000DBD00010C80D8E4FCFDE57A25E0FFE5FC
:10248C007933FEC3ED9FEC9E5048E4F583F5827FD3
:10249C007B1235FA7FEF1235FAA3E5826428458367
:1024AC0070EDE4F583F5821235F3A3E582645045B3
:1024BC008370F4E4F583F5827F7B1235FA7FEF129B
:1024CC0035FAA3E5826428458370ED0DBD00010C3F
:1024DC0080A8E4FCFDC3ED957AEC9579501FE4F5EA
:1024EC0083F5827F7B1235FA7FEF1235FAA3E582F2
:0F24FC0064A0458370ED0DBD00010C80D8D2A007
:01250B0022AD
:10367F00AD07AC06C2A0D2B1AF041235FAAF051236
:05368F0035FAD2A02273
:10327700EFC3942050037F5F22EFC39420400BEFEE
:10328700D3942F5005EF2428FF22EFC39430400B2F
:10329700EFD39439500574D02FFF22EFC3943A40EF
:1032A7000BEFD394405005EF241EFF22EFC3944148
:1032B700400BEFD3947E5005EF24C9FF22EFD39440
:0632C7007E40027F5F2241
:10293900FDE43511FC85151F85162085172185189D
:0529490022AB14AA13EB
:06294E008F1AAF05AE0474
:10295400EB240FFDE43A157D157DA87DF608A60548
:10296400EF2407FDE43EFC12268FAF1A7E00D3EF5E
:10297400945FEE940040027F5FEFC4F8540FC86880
:10298400FFEEC454F048FE7524FF75250075269E9D
:10299400EF2526F526EE3525F525E4F523AB2405AC
:1029A40026E526AA257002052514F91211F9FBE47F
:1029B400FAA802EB088002C333D8FC30E706AF2044
:1029C400AE1F8004AF22AE2112367F0ABA08E20598
:0829D40023E523C3941040C564
:0129DC0022D8
:1029DD008B0F8A1089118C128D13AB0FAA10A911B0
:1029ED001211F97003D38001C34066AB0F0511E5D9
:1029FD0011AA107002051014F91211F9FF12327795
:102A0D0085161F851720851821851922AB15AA1447
:102A1D00AD13AC1212294ED3E5139497E512940021
:102A2D004012E4F512F51374102515F515E435145F
:102A3D00F514800B74082513F513E43512F512D334
:102A4D00E515948FE51494004090E4F514F5158088
:102A5D0089157D157DA87D760008769F7A007B000F
:0B2A6D007C007D9F7E007F0002268F12
:102A78008E0F8F108C118D128A138B14D3E512943C
:102A88007FE5119400400675110075127FD3E51497
:102A9800948FE5139400400CE51424EFF514E51326
:102AA80034FFF513E50FC4540FFF85151F85162055
:102AB800851721851822AB14AA13AD12AC1112295F
:102AC8004EE50F540FFFE5122408122939E50FC40B
:102AD800F854F0C8E510C4540F48540FFFE5122409
:102AE80010122939E510540FFFE51224181229395C
:102AF800157D157DA87D760008769F7A007B007C81
:0A2B0800007D9F7E007F0002268FF3
:10000300E4FDFCFFFEC297D287000000000000EF72
:1000130025E0FFEE33FEA296E433FBEF4BFFC287EE
:1000230075A5FF75F2FF000000000000D2970000E5
:0F003300000000000DBD00010CED64084C70C60C
:01004200229B
:10311100C2A0C2B11235FAD2B1C297D2971200033E
:10312100E48F4EF54DF54CF54B120003E48F52F54B
:1031310051F550F54F120003E48F56F555F554F54E
:1031410053120003E48F5AF559F558F557D2A0AF41
:1031510052AE51AD50AC4F78081213A8EF4556FF4F
:0C316100EE4555FEED4554FDEC4553FCD9
:01316D00223F
:103494008A7B8B7C157D157DA87DA60408A605ABCB
:1034A40005AA04AD07AC0612268FC2A0D296D2B1EB
:0E34B400E57BFF1235FAAF7C1235FAD2A0226A
:0C304C008E5B8F5C8C5D8D5E8A5F8B60FC
:10305800157D157DA87DA66108A662AA5FAB60AC48
:103068005DAD5EAE5BAF5C12268FAB60AA5FE562BA
:103078002401FFE43561FEC3EB9FEA9E5029855C7D
:1030880082855B83E55E2401FFE4355DFEC3E5824E
:103098009FE5839E500AAF64AE6312367FA380E437
:0730A8000BBB00010A80C709
:0130AF0022FE
:042E1D008E718F72B1
:102E210075730075740FC3E574949FE57394005036
:102E310027857361857462857163857264AB74AA39
:102E4100737D9F7C00E4FFFE12304C74102574F5F5
:102E510074E43573F57380CE75730075740FC3E533
:102E610074949FE5739400502775610075629F8586
:102E71007163857264E4FBFAAD74AC73AF74AE73C5
:102E810012304C74102574F574E43573F57380CEEB
:012E9100221E
:083702005450205445535400BB
:10356400C294C295E49002D0F0EF20E704C2B28086
:1035740002D2B2D295EF25E0FFC2959002D0E004CA
:05358400F0E0B408E4D2
:01358900221F
:102E92009002CC1213E700000000C294D2B3E49077
:102EA20002CBF09002CBE0FFC3940C5049C29530A4
:102EB200B33AC3740B9FFF7E007401A80708800514
:102EC200C333CE33CED8F9FFEE3395E0FDFC90024A
:102ED200CCE0F8A3E0F9A3E0FAA3E04FFFEA4EFE4C
:102EE200E94DFDE84CFC9002CC1213DBD295900226
:102EF200CBE004F080ADD2949002CCA3A3E0FEA379
:022F0200E0FFEE
:012F040022AA
:021F2B00AB0702
:101F2D00E490029AF0A3F0A3F0D2B590029AE0C328
:101F3D00940B502C20B529C294EB04FF123564127A
:101F4D002E9290029AE025E0249DF582E43402F56C
:101F5D0083EEF0A3EFF090029AE004F0D29480CBE0
:101F6D0090029AE07003022042E4A3F090029AE0FE
:101F7D00F9A3E0C399400302202EE4A3F090029B45
:101F8D00E0FF90029AE0C39FFF90029CE0C39F4048
:101F9D0003022025E0FF25E0249FF582E43402F5BD
:101FAD0083E0FCA3E0FDEF25E0249DF582E43402FF
:101FBD00F583E0FEA3E0D39DEE9C405390029CE0A0
:101FCD0025E0249DF582E43402F583E0FCA3E0FDD9
:101FDD00900298ECF0A3EDF0EF25E0249FF582E45C
:101FED003402F583E0FEA3E0FF90029CE0FB25E0C8
:101FFD00249DF582E43402F583EEF0A3EFF0EB259A
:10200D00E0249FF582E43402F583ECF0A3EDF0902B
:10201D00029CE004F0021F8A90029BE004F0021F74
:10202D0079E9C31325E0249DF582E43402F583E0BC
:08203D00FEA3E0FF22E4FEFF18
:012045002278
:101ACC009002B31213E7000000009002B71213E764
:101ADC00000000009002BB1213E70000000090020F
:101AEC00BF1213E7000000009002C31213E70000BE
:101AFC0000009002C71213E700000000E4FFFE1282
:101B0C00345D7FB57EAD122E1D7BFF7A377902E4F2
:101B1C00F514F515F516F51774FFF518F519E4FD20
:101B2C00FC1229DDD2B520B5FD20B603021C787F4E
:101B3C00327E001235B230B503021C6E7FD0121FFC
:101B4C002BE4FCFD9002BB1213DB9002BBE0FCA368
:101B5C00E0FDA3E0FEA3E024BDFFEE34FFFEED3478
:101B6C00FFFDEC34FFFCE47BA0FAF9F8121267E4F9
:101B7C007B6B7A07F9F81212F29002B31213DB7F27
:101B8C0090121F2BE4FCFD9002BF1213DB9002BFDE
:101B9C00E0FCA3E0FDA3E0FEA3E0245FFFEE34FF36
:101BAC00FEED34FFFDEC34FFFCE47BA0FAF9F812F7
:101BBC001267E47BB87A06F9F81212F29002B712A7
:101BCC0013DB7F0F7E001235B230B503021B42E4EB
:101BDC00FFFEFDFC9002B3E0F8A3E0F9A3E0FAA34A
:101BEC00E0FBC31213845003021B42E47FA0FEFDF2
:101BFC00FC9002B3E0F8A3A3A3E012138440030209
:101C0C001B42E4FFFEFDFC9002B7E0F8A3E0F9A351
:101C1C00E0FAA3E0FBC31213845003021B42E47FDF
:101C2C00A0FEFDFC9002B7E0F8A3A3A3E01213847E
:101C3C004003021B429002B3A3A3E0FEA3E0FFC04B
:101C4C0006C007A3A3A3E0FEA3E0FFC374409FFD5F
:101C5C0074019EFCD007D0067B007AF812349402F3
:101C6C001B427F327E001235B2021B35E4FFFE129E
:101C7C00345D7FB57EAD122E1D7BFF7A377902E481
:101C8C00F514F515F516F51774FFF518F519E4FDAF
:071C9C00FC1229DD021B35DB
:1033EB001201100100000040C41000000000010297
:1033FB0003010902200001010080FA090400000208
:10340B00FF00000007050202400000070582024092
:0A341B000000040309040100000092
:101DF400900200EEF0A3EFF0900204EBF0A3EAF0FF
:101E0400A3E9F0E4900791F0900791E0FF9033EBA1
:101E140093FE74402FF582E43407F583EEF09007C7
:101E240091E004F0E0B412E0E4900791F09007919F
:101E3400E0FF9033FD93FE74522FF582E43407F5EE
:101E440083EEF0900791E004F0E0B420E09002000B
:101E5400E0FEA3E0900748F0EEA3F0A3EDF0ECA3BE
:101E6400F090077274FFF0A37434F0A3741DF09023
:101E74000204E0F9A3E0FAA3E0900775C9F0A3EA2D
:101E8400F0A3E9F0900207E0F9A3E0FAA3E09007D9
:101E940078C9F0A3EAF0A3E9F090020AE0F9A3E01C
:101EA400FAA3E090077BC9F0A3EAF0A3E9F090025B
:101EB4000DE0FFC394FA500590075AEFF090020E1C
:101EC400E0900759F090020FE0FEA3E090074CF079
:101ED400EEA3F0E59620E7FB759601759708E59665
:101EE40020E7FB75960775970FE59620E7FB759637
:101EF4000975970EE59620E7FB75960B75970775A0
:101F0400D7E01236D9E4900793F0900792F0900747
:101F140094F0900786F043E602D2AFE59620E7FB03
:071F2400759601759701227B
:103516009007867402F0E59620E7FB75960175978D
:1035260001E490078EF0A37403F0A3F0E4900793F0
:07353600F090079204F0225F
:1016AE00E59620E7FB75960EE4F597E59620E7FBA9
:1016BE00759691E59620E7FB90079EE597F0E0FF83
:1016CE0030E210E59620E7FB759611E4F59790074A
:1016DE008EF022EF30E410E59620E7FB759611753B
:1016EE009780E490078EF090078EE060030217DF7C
:1016FE0090079EE020E0030217DF7596204396C008
:10170E00E4900791F0E59620E7FB900791E0247EA8
:10171E00F582E43407F583E597F0900791E004F045
:10172E00E0B407E1E59620E7FBE4F596900791E03B
:10173E00247EF582E43407F583E597F0900781E087
:10174E00FE900780E07C002400FFEC3E900795F0B1
:10175E00A3EFF0900785E0FE900784E02400FFECF5
:10176E003E900797F0A3EFF090077FE0B40C005087
:10177E005D901786F82828730217AA0217AF021772
:10178E00B40217B90217DC0217BE0217C30217DC28
:10179E000217C80217CD0217D20217D7122F0580D3
:1017AE00301231C8802B12237F80261232208021E6
:1017BE00123613801C12272A8017123365801212DC
:1017CE00316E800D12353D8008123694800312362C
:1017DE003390078EE0640160030218E090079E7458
:1017EE0002F0C390078DE0944090078CE094004087
:1017FE0061E59620E7FB759620E4900791F090073F
:10180E0091E0FFC394405022900787E0FBA3E0FADB
:10181E00A3E0F98F82758300121212F597E59620D8
:10182E00E7FB900791E004F080D4900788E475F010
:10183E004012125190078DE024C0F090078CE034D6
:10184E00FFF090078BE02440F090078AE03400F020
:10185E008052E59620E7FB759620E4900791F09074
:10186E000791E0FFD390078DE09F90078CE09400E6
:10187E004026900787E0FBA3E0FAA3E0F9900791DA
:10188E00E0F582758300121212F597E59620E7FBBC
:10189E00900791E004F080C790079EE04408F0E4C2
:1018AE0090078EF0900797E0FEA3E0FF90078AE086
:1018BE00B50611A3E0B5070C90079EE04408F0E4CE
:1018CE0090078EF0E59620E7FB75961190079EE047
:0318DE00F5972259
:10363300E59620E7FB75960EE4F597E59620E7FB04
:0D36430075961175972090078E7404F02283
:102F050090077EE0247F60071460062402704880E5
:102F15002D90078FE0B40309900782E0B402028088
:102F25000E900790E0B40316900782E0B4820F90EC
:102F3500078774FFF0A37434F0A37421800D900704
:102F45008774FFF0A37434F0A37423F090078CE426
:102F5500F0A37402F0800312363390078EE0640408
:102F6500601012369490078E7401F0E490078AF091
:032F7500A3F022A4
:1031C800900780E07041900782E0B4021DE59620E8
:1031D800E7FB75960E759702E59620E7FB75961442
:1031E800759780E490078FF08020E59620E7FB75BF
:1031F800960E759702E59620E7FB75961175974030
:10320800E4900790F08003123633E59620E7FB75CB
:08321800960EE4F597023694CE
:10237F00900796E020E003022415900794E030E0E8
:10238F000854FEF04402F08007900794E054FDF0EB
:10239F00E59620E7FB75960E759702E59620E7FB0D
:1023AF00759614759710E59620E7FB75961175973E
:1023BF0008E59620E7FB759694E59620E7FB9007D6
:1023CF009DE597F0E020E4E9E59620E7FB7596148C
:1023DF00759710E59620E7FB759691E59620E7FB3C
:1023EF0090079DE597F0E020E3E9E59620E7FB7580
:1023FF0096117597089007927408F0900794E0FF74
:10240F0030E1034401F0900795E0FCA3E0FD30E1DB
:10241F000D9007867406F0900792E04410F0ED30AF
:10242F00E20D9007867404F0900792E04420F0E5E7
:0D243F009620E7FB75960EE4F597023694A3
:10322000900780E07040900782E0B4021BE5962092
:10323000E7FB75960E759702E59620E7FB759614E9
:1032400075972090078F8019E59620E7FB75960EFD
:10325000759702E59620E7FB759611759710900714
:10326000907403F08003123633E59620E7FB7596E1
:073270000EE4F5970236940D
:10361300E59620E7FBE4F596900780E0FFF597EF4A
:1036230090078660057403F080037402F0023694F9
:10272A00900781E024FE601B14603B2402706990CC
:10273A0007877401F0A37407F0A37440F090074070
:10274A00E0804A9007877401F0A37407F0A37452DB
:10275A00F0900755E0FE900754E07C002400FFEC5F
:10276A003E90078C802C900780E075F003A42472B9
:10277A00F582E43407F583E0FBA3E0FAA3E0F990DD
:10278A000787EBF0A3EAF0A3E9F01211F9FF90072B
:10279A008CE4F0A3EFF0800312363390078CE0FE4E
:1027AA00A3E0FF900797E0FCA3E0FDC39FEC9E50D7
:1027BA000890078CECF0A3EDF090078EE0640460BB
:1027CA001012369490078E7401F0E490078AF0A3F1
:0227DA00F022EB
:10336500900786E0FFB40414A374FFF0A37434F04F
:10337500A37421F090078CE4F0A304F0EFB40316D6
:1033850090078774FFF0A37434F0A37423F09007BB
:103395008CE4F0A304F012369490078E7401F0E4E7
:0733A50090078AF0A3F0225B
:10316E00900780E0D394004042900792E04440F0F4
:10317E009007867404F0E490078FF0A3F0E5962094
:10318E00E7FB75960E759702E59620E7FB7596128E
:10319E00759784E59620E7FB759615759780E596ED
:1031AE0020E7FB75960EE4F597800C900786740366
:0A31BE00F090078FF0A3F0023694A2
:10353D0090078774FFF0A37434F0A37423F0900701
:10354D008CE4F0A304F012369490078E7401F0E42D
:07355D0090078AF0A3F022A1
:1036940090078EE06404600BE59620E7FB759611B5
:0436A40075974022B4
:03004300021CA3F9
:101CA300C0E0C0F0C083C082C0D075D000C000C007
:101CB30001C002C003C004C005C006C0079007A14D
:101CC300E596F0E59620E7FB75968EE59620E7FB13
:101CD3009007A2E597F0E59620E7FB759686E596D3
:101CE30020E7FB900799E597F0E030E30BE59620BA
:101CF300E7FB75960B759707900799E030E203129F
:101D03003516900799E030E014900786E0FF6404ED
:101D13006004EFB40607900792E04480F0E5962054
:101D2300E7FB759682E59620E7FB900799E597F028
:101D3300E030E0031216AE900799E030E22AE59610
:101D430020E7FB75960E759702E59620E7FB7596DF
:101D530091E59620E7FB90079AE597F0E05403702E
:101D630007900792E04402F0E59620E7FB7596841E
:101D7300E59620E7FB900799E597F0E030E229E547
:101D83009620E7FB75960E759702E59620E7FB759F
:101D93009694E59620E7FB90079AE597F0E030E00C
:101DA30007900792E04404F0E59620E7FB75960E52
:101DB3009007A2E0F597E59620E7FB9007A1E5964B
:101DC300F0E59620E7FB900794E030E00990079256
:101DD300E060031235D1D007D006D005D004D0037C
:101DE300D002D001D000D0D0D082D083D0F0D0E0C8
:011DF30032BD
:10342500E5B964E0602E53A90FC0A943B280E5A9B0
:103435005407D394014003E4F5A9E4F5B943B980F1
:10344500E4D5E0FD43B9C0E5B930E5FBD0E0B40211
:083455000343A90253A90F2251
:1034C20053D7BF43C910E5A95402900791F043B204
:1034D2008075A910E4F5B943B22000123425900793
:0B34E20091E042A953C9EF43D74022FC
:0E36CB00900792E0FFE4F022900792E0FF22C9
:1027DC00900786E0B40606EDD3944040037F0022B8
:1027EC00E59620E7FB75960E759702E59620E7FBBC
:1027FC00759694E59620E7FB90079CE597F0E02012
:10280C00E003022888E59620E7FB759696E596206E
:10281C00E7FB900793E597F0E0FFEDC39F5006AE02
:10282C0005AF068000900793EFF053E6FDE5962088
:10283C00E7FB7596E2900793E06025FEEB600630AF
:10284C00E70F7F0022E59620E7FBA79709DEF680CD
:10285C000F89828A83E59620E7FBE597F0A3DEF5E6
:10286C00E59620E7FBE4F596E59620E7FB759614D4
:0F287C00E4F59743E602900793E0FF227F0022E6
:10216000900786E0B4060DED4C6009D3ED9400ECC9
:1021700094104004E4FEFF2253E6FDE490079FF034
:10218000A3F090079BF089828A83C083C082900766
:102190009BE030E003022261E59620E7FB75960E96
:1021A000759702E59620E7FB759691E59620E7FB8B
:1021B00090079BE597F0E030E020E59620E7FB757F
:1021C000960EE4F597E59620E7FB759691E5962047
:1021D000E7FB90079BE597F080B4C3ED9440EC9447
:1021E000009007A0E0401B2440F090079FE03400DF
:1021F000F074C02DFD74FF3CFCE490079BF0784028
:1022000080132DF090079FE03CF090079B7401F045
:10221000A805E4FCFDE59620E7FB759622D082D068
:1022200083E8602BEB601130E71AE59620E7FBE4CA
:1022300093F597A3D8F48017E59620E7FB879709D5
:10224000D8F6800BE59620E7FBE0F597A3D8F5C01C
:1022500083C082E59620E7FB7596117597010221F0
:102260008ED082D08343E60290079FE0FEA3E0FF7A
:01227000224B
:10365000900794E04401F0900792E0600BE596201B
:09366000E7FB75960B75970F222C
:0C36D900E59620E7FB75960F7597892297
:1035D100D007D007D007D006D005D004D003D00241
:1035E100D001D000D0D0D082D083D0F0D0E0020082
:0235F1008B222B
:03000000022B12BE
:0C2B1200787FE4F6D8FD75817D022B5918
:10110300E709F608DFFA8046E709F208DFFA803ECE
:1011130088828C83E709F0A3DFFA8032E309F608BB
:10112300DFFA8078E309F208DFFA807088828C8323
:10113300E309F0A3DFFA806489828A83E0A3F608D7
:10114300DFFA805889828A83E0A3F208DFFA804CB1
:1011530080D280FA80C680D4806980F28033801088
:1011630080A680EA809A80A880DA80E280CA8033F1
:1011730089828A83ECFAE493A3C8C582C8CCC58369
:10118300CCF0A3C8C582C8CCC583CCDFE9DEE78039
:101193000D89828A83E493A3F608DFF9ECFAA9F0B8
:1011A300EDFB2289828A83ECFAE0A3C8C582C8CC0E
:1011B300C583CCF0A3C8C582C8CCC583CCDFEADE27
:1011C300E880DB89828A83E493A3F208DFF980CC89
:1011D30088F0EF60010E4E60C388F0ED2402B40482
:1011E3000050B9F582EB2402B4040050AF23234529
:0611F300822390115373EA
:1011F900BB010689828A83E0225002E722BBFE02F4
:09120900E32289828A83E4932226
:10121200BB010CE58229F582E5833AF583E0225091
:1012220006E92582F8E622BBFE06E92582F8E222DB
:0D123200E58229F582E5833AF583E49322F5
:10123F00EF8DF0A4A8F0CF8CF0A428CE8DF0A42EC3
:02124F00FE227D
:10125100C5F0F8A3E028F0C5F0F8E5821582700228
:061261001583E038F022C5
:10126700E88FF0A4CC8BF0A42CFCE98EF0A42CFC26
:101277008AF0EDA42CFCEA8EF0A4CDA8F08BF0A4A4
:101287002DCC3825F0FDE98FF0A42CCD35F0FCEB03
:101297008EF0A4FEA9F0EB8FF0A4CFC5F02ECD39C8
:0F12A700FEE43CFCEAA42DCE35F0FDE43CFC2235
:1012B60075F008758200EF2FFFEE33FECD33CDCCEF
:1012C60033CCC58233C5829BED9AEC99E582984072
:1012D6000CF582EE9BFEED9AFDEC99FC0FD5F0D64F
:1012E600E4CEFBE4CDFAE4CCF9A88222B800C1B979
:1012F6000059BA002DEC8BF084CFCECDFCE5F0CBB7
:10130600F97818EF2FFFEE33FEED33FDEC33FCEBEF
:1013160033FB10D703994004EB99FB0FD8E5E4F9AA
:10132600FA227818EF2FFFEE33FEED33FDEC33FC97
:10133600C933C910D7059BE99A4007EC9BFCE99A8B
:10134600F90FD8E0E4C9FAE4CCFB2275F010EF2FD0
:10135600FFEE33FEED33FDCC33CCC833C810D707D0
:101366009BEC9AE899400AED9BFDEC9AFCE899F80B
:0E1376000FD5F0DAE4CDFBE4CCFAE4C8F9229E
:10138400EB9FF5F0EA9E42F0E99D42F0E89C45F0BF
:011394002236
:10139500E8600FECC313FCED13FDEE13FEEF13FF36
:0313A500D8F1225A
:1013A800E8600FEFC333FFEE33FEED33FDEC33FCA3
:0313B800D8F12247
:1013BB007401FF3395E0FEFDFC080808E6CF2FF61D
:1013CB0018E6CE3EF618E6CD3DF618E6CC3CF622F6
:0C13DB00ECF0A3EDF0A3EEF0A3EFF02285
:1013E700A8828583F0D083D0821213FE1213FE12D7
:1013F70013FE1213FEE473E493A3C583C5F0C583FC
:10140700C8C582C8F0A3C583C5F0C583C8C582C84F
:0114170022B2
:102B1E00022D26E493A3F8E493A34003F68001F27A
:102B2E0008DFF48029E493A3F85407240CC8C333B8
:102B3E00C4540F4420C8834004F456800146F6DF87
:102B4E00E4800B01020408102040809034EDE47EF6
:102B5E00019360BCA3FF543F30E509541FFEE4937C
:102B6E00A360010ECF54C025E060A840B8E493A343
:102B7E00FAE493A3F8E493A3C8C582C8CAC583CA6E
:102B8E00F0A3C8C582C8CAC583CADFE9DEE780BE26
:0135150000B5
:00000001FF
